{
  "contractName": "Attendance",
  "abi": [
    {
      "anonymous": false,
      "inputs": [
        {
          "indexed": true,
          "internalType": "uint256",
          "name": "_iotId",
          "type": "uint256"
        }
      ],
      "name": "attendanceCreated",
      "type": "event"
    },
    {
      "anonymous": false,
      "inputs": [
        {
          "indexed": true,
          "internalType": "uint256",
          "name": "_userId",
          "type": "uint256"
        }
      ],
      "name": "studentCreated",
      "type": "event"
    },
    {
      "inputs": [],
      "name": "attendanceCount",
      "outputs": [
        {
          "internalType": "uint256",
          "name": "",
          "type": "uint256"
        }
      ],
      "stateMutability": "view",
      "type": "function",
      "constant": true
    },
    {
      "inputs": [
        {
          "internalType": "uint256",
          "name": "",
          "type": "uint256"
        }
      ],
      "name": "attendanceList",
      "outputs": [
        {
          "internalType": "string",
          "name": "studentId",
          "type": "string"
        },
        {
          "internalType": "string",
          "name": "attendance_date",
          "type": "string"
        },
        {
          "internalType": "string",
          "name": "class_name",
          "type": "string"
        }
      ],
      "stateMutability": "view",
      "type": "function",
      "constant": true
    },
    {
      "inputs": [],
      "name": "studentCount",
      "outputs": [
        {
          "internalType": "uint256",
          "name": "",
          "type": "uint256"
        }
      ],
      "stateMutability": "view",
      "type": "function",
      "constant": true
    },
    {
      "inputs": [
        {
          "internalType": "uint256",
          "name": "",
          "type": "uint256"
        }
      ],
      "name": "studentList",
      "outputs": [
        {
          "internalType": "string",
          "name": "studentid",
          "type": "string"
        },
        {
          "internalType": "string",
          "name": "name",
          "type": "string"
        },
        {
          "internalType": "string",
          "name": "course",
          "type": "string"
        },
        {
          "internalType": "string",
          "name": "phone",
          "type": "string"
        },
        {
          "internalType": "string",
          "name": "email",
          "type": "string"
        },
        {
          "internalType": "string",
          "name": "student_address",
          "type": "string"
        }
      ],
      "stateMutability": "view",
      "type": "function",
      "constant": true
    },
    {
      "inputs": [
        {
          "internalType": "string",
          "name": "sid",
          "type": "string"
        },
        {
          "internalType": "string",
          "name": "std_name",
          "type": "string"
        },
        {
          "internalType": "string",
          "name": "std_course",
          "type": "string"
        },
        {
          "internalType": "string",
          "name": "std_phone",
          "type": "string"
        },
        {
          "internalType": "string",
          "name": "std_email",
          "type": "string"
        },
        {
          "internalType": "string",
          "name": "std_address",
          "type": "string"
        }
      ],
      "name": "saveStudent",
      "outputs": [],
      "stateMutability": "nonpayable",
      "type": "function"
    },
    {
      "inputs": [],
      "name": "getStudentCount",
      "outputs": [
        {
          "internalType": "uint256",
          "name": "",
          "type": "uint256"
        }
      ],
      "stateMutability": "view",
      "type": "function",
      "constant": true
    },
    {
      "inputs": [
        {
          "internalType": "string",
          "name": "sid",
          "type": "string"
        },
        {
          "internalType": "string",
          "name": "sdate",
          "type": "string"
        },
        {
          "internalType": "string",
          "name": "cname",
          "type": "string"
        }
      ],
      "name": "saveAttendance",
      "outputs": [],
      "stateMutability": "nonpayable",
      "type": "function"
    },
    {
      "inputs": [],
      "name": "getAttendanceCount",
      "outputs": [
        {
          "internalType": "uint256",
          "name": "",
          "type": "uint256"
        }
      ],
      "stateMutability": "view",
      "type": "function",
      "constant": true
    },
    {
      "inputs": [
        {
          "internalType": "uint256",
          "name": "i",
          "type": "uint256"
        }
      ],
      "name": "getStdID",
      "outputs": [
        {
          "internalType": "string",
          "name": "",
          "type": "string"
        }
      ],
      "stateMutability": "view",
      "type": "function",
      "constant": true
    },
    {
      "inputs": [
        {
          "internalType": "uint256",
          "name": "i",
          "type": "uint256"
        }
      ],
      "name": "getAttendanceDate",
      "outputs": [
        {
          "internalType": "string",
          "name": "",
          "type": "string"
        }
      ],
      "stateMutability": "view",
      "type": "function",
      "constant": true
    },
    {
      "inputs": [
        {
          "internalType": "uint256",
          "name": "i",
          "type": "uint256"
        }
      ],
      "name": "getClassName",
      "outputs": [
        {
          "internalType": "string",
          "name": "",
          "type": "string"
        }
      ],
      "stateMutability": "view",
      "type": "function",
      "constant": true
    },
    {
      "inputs": [
        {
          "internalType": "uint256",
          "name": "i",
          "type": "uint256"
        }
      ],
      "name": "getEmail",
      "outputs": [
        {
          "internalType": "string",
          "name": "",
          "type": "string"
        }
      ],
      "stateMutability": "view",
      "type": "function",
      "constant": true
    },
    {
      "inputs": [
        {
          "internalType": "uint256",
          "name": "i",
          "type": "uint256"
        }
      ],
      "name": "getAddress",
      "outputs": [
        {
          "internalType": "string",
          "name": "",
          "type": "string"
        }
      ],
      "stateMutability": "view",
      "type": "function",
      "constant": true
    },
    {
      "inputs": [
        {
          "internalType": "uint256",
          "name": "i",
          "type": "uint256"
        }
      ],
      "name": "getID",
      "outputs": [
        {
          "internalType": "string",
          "name": "",
          "type": "string"
        }
      ],
      "stateMutability": "view",
      "type": "function",
      "constant": true
    },
    {
      "inputs": [
        {
          "internalType": "uint256",
          "name": "i",
          "type": "uint256"
        }
      ],
      "name": "getPhone",
      "outputs": [
        {
          "internalType": "string",
          "name": "",
          "type": "string"
        }
      ],
      "stateMutability": "view",
      "type": "function",
      "constant": true
    },
    {
      "inputs": [
        {
          "internalType": "uint256",
          "name": "i",
          "type": "uint256"
        }
      ],
      "name": "getName",
      "outputs": [
        {
          "internalType": "string",
          "name": "",
          "type": "string"
        }
      ],
      "stateMutability": "view",
      "type": "function",
      "constant": true
    },
    {
      "inputs": [
        {
          "internalType": "uint256",
          "name": "i",
          "type": "uint256"
        }
      ],
      "name": "getCourse",
      "outputs": [
        {
          "internalType": "string",
          "name": "",
          "type": "string"
        }
      ],
      "stateMutability": "view",
      "type": "function",
      "constant": true
    }
  ],
  "bytecode": "0x608060405260008055600060025534801561001957600080fd5b50612812806100296000396000f3fe608060405234801561001057600080fd5b5060043610610128576000357c010000000000000000000000000000000000000000000000000000000090048063661b88bb116100bf578063a26f80111161008e578063a26f801114610241578063b93f9b0a14610249578063dc9be8241461025c578063e581f9ee14610271578063e7316c081461027a57600080fd5b8063661b88bb146101d45780636b8ff574146101f65780637df221e914610209578063972fe8bc1461022e57600080fd5b80632e7d44b5116100fb5780632e7d44b5146101935780633b977c03146101a65780633ddfbd8b146101b957806341e0c407146101cc57600080fd5b80630b91e28d1461012d5780630d18e43c146101565780630fa54817146101695780631c11863a1461017c575b600080fd5b61014061013b3660046123c8565b61028d565b60405161014d919061242e565b60405180910390f35b6101406101643660046123c8565b610627565b6101406101773660046123c8565b6109bf565b61018560025481565b60405190815260200161014d565b6101406101a13660046123c8565b610ba3565b6101406101b43660046123c8565b610f3d565b6101406101c73660046123c8565b611093565b600054610185565b6101e76101e23660046123c8565b6111e9565b60405161014d93929190612448565b6101406102043660046123c8565b6113a3565b61021c6102173660046123c8565b6116af565b60405161014d9695949392919061248b565b61014061023c3660046123c8565b611a13565b600254610185565b6101406102573660046123c8565b611dad565b61026f61026a3660046125c9565b612147565b005b61018560005481565b61026f610288366004612651565b612207565b60606000600160008481526020019081526020016000206040518060c00160405290816000820180546102bf90612746565b80601f01602080910402602001604051908101604052809291908181526020018280546102eb90612746565b80156103385780601f1061030d57610100808354040283529160200191610338565b820191906000526020600020905b81548152906001019060200180831161031b57829003601f168201915b5050505050815260200160018201805461035190612746565b80601f016020809104026020016040519081016040528092919081815260200182805461037d90612746565b80156103ca5780601f1061039f576101008083540402835291602001916103ca565b820191906000526020600020905b8154815290600101906020018083116103ad57829003601f168201915b505050505081526020016002820180546103e390612746565b80601f016020809104026020016040519081016040528092919081815260200182805461040f90612746565b801561045c5780601f106104315761010080835404028352916020019161045c565b820191906000526020600020905b81548152906001019060200180831161043f57829003601f168201915b5050505050815260200160038201805461047590612746565b80601f01602080910402602001604051908101604052809291908181526020018280546104a190612746565b80156104ee5780601f106104c3576101008083540402835291602001916104ee565b820191906000526020600020905b8154815290600101906020018083116104d157829003601f168201915b5050505050815260200160048201805461050790612746565b80601f016020809104026020016040519081016040528092919081815260200182805461053390612746565b80156105805780601f1061055557610100808354040283529160200191610580565b820191906000526020600020905b81548152906001019060200180831161056357829003601f168201915b5050505050815260200160058201805461059990612746565b80601f01602080910402602001604051908101604052809291908181526020018280546105c590612746565b80156106125780601f106105e757610100808354040283529160200191610612565b820191906000526020600020905b8154815290600101906020018083116105f557829003601f168201915b50505091909252505050604001519392505050565b60606000600160008481526020019081526020016000206040518060c001604052908160008201805461065990612746565b80601f016020809104026020016040519081016040528092919081815260200182805461068590612746565b80156106d25780601f106106a7576101008083540402835291602001916106d2565b820191906000526020600020905b8154815290600101906020018083116106b557829003601f168201915b505050505081526020016001820180546106eb90612746565b80601f016020809104026020016040519081016040528092919081815260200182805461071790612746565b80156107645780601f1061073957610100808354040283529160200191610764565b820191906000526020600020905b81548152906001019060200180831161074757829003601f168201915b5050505050815260200160028201805461077d90612746565b80601f01602080910402602001604051908101604052809291908181526020018280546107a990612746565b80156107f65780601f106107cb576101008083540402835291602001916107f6565b820191906000526020600020905b8154815290600101906020018083116107d957829003601f168201915b5050505050815260200160038201805461080f90612746565b80601f016020809104026020016040519081016040528092919081815260200182805461083b90612746565b80156108885780601f1061085d57610100808354040283529160200191610888565b820191906000526020600020905b81548152906001019060200180831161086b57829003601f168201915b505050505081526020016004820180546108a190612746565b80601f01602080910402602001604051908101604052809291908181526020018280546108cd90612746565b801561091a5780601f106108ef5761010080835404028352916020019161091a565b820191906000526020600020905b8154815290600101906020018083116108fd57829003601f168201915b5050505050815260200160058201805461093390612746565b80601f016020809104026020016040519081016040528092919081815260200182805461095f90612746565b80156109ac5780601f10610981576101008083540402835291602001916109ac565b820191906000526020600020905b81548152906001019060200180831161098f57829003601f168201915b5050509190925250509051949350505050565b60606000600360008481526020019081526020016000206040518060600160405290816000820180546109f190612746565b80601f0160208091040260200160405190810160405280929190818152602001828054610a1d90612746565b8015610a6a5780601f10610a3f57610100808354040283529160200191610a6a565b820191906000526020600020905b815481529060010190602001808311610a4d57829003601f168201915b50505050508152602001600182018054610a8390612746565b80601f0160208091040260200160405190810160405280929190818152602001828054610aaf90612746565b8015610afc5780601f10610ad157610100808354040283529160200191610afc565b820191906000526020600020905b815481529060010190602001808311610adf57829003601f168201915b50505050508152602001600282018054610b1590612746565b80601f0160208091040260200160405190810160405280929190818152602001828054610b4190612746565b8015610b8e5780601f10610b6357610100808354040283529160200191610b8e565b820191906000526020600020905b815481529060010190602001808311610b7157829003601f168201915b50505091909252505050602001519392505050565b60606000600160008481526020019081526020016000206040518060c0016040529081600082018054610bd590612746565b80601f0160208091040260200160405190810160405280929190818152602001828054610c0190612746565b8015610c4e5780601f10610c2357610100808354040283529160200191610c4e565b820191906000526020600020905b815481529060010190602001808311610c3157829003601f168201915b50505050508152602001600182018054610c6790612746565b80601f0160208091040260200160405190810160405280929190818152602001828054610c9390612746565b8015610ce05780601f10610cb557610100808354040283529160200191610ce0565b820191906000526020600020905b815481529060010190602001808311610cc357829003601f168201915b50505050508152602001600282018054610cf990612746565b80601f0160208091040260200160405190810160405280929190818152602001828054610d2590612746565b8015610d725780601f10610d4757610100808354040283529160200191610d72565b820191906000526020600020905b815481529060010190602001808311610d5557829003601f168201915b50505050508152602001600382018054610d8b90612746565b80601f0160208091040260200160405190810160405280929190818152602001828054610db790612746565b8015610e045780601f10610dd957610100808354040283529160200191610e04565b820191906000526020600020905b815481529060010190602001808311610de757829003601f168201915b50505050508152602001600482018054610e1d90612746565b80601f0160208091040260200160405190810160405280929190818152602001828054610e4990612746565b8015610e965780601f10610e6b57610100808354040283529160200191610e96565b820191906000526020600020905b815481529060010190602001808311610e7957829003601f168201915b50505050508152602001600582018054610eaf90612746565b80601f0160208091040260200160405190810160405280929190818152602001828054610edb90612746565b8015610f285780601f10610efd57610100808354040283529160200191610f28565b820191906000526020600020905b815481529060010190602001808311610f0b57829003601f168201915b50505091909252505050606001519392505050565b6060600060036000848152602001908152602001600020604051806060016040529081600082018054610f6f90612746565b80601f0160208091040260200160405190810160405280929190818152602001828054610f9b90612746565b8015610fe85780601f10610fbd57610100808354040283529160200191610fe8565b820191906000526020600020905b815481529060010190602001808311610fcb57829003601f168201915b5050505050815260200160018201805461100190612746565b80601f016020809104026020016040519081016040528092919081815260200182805461102d90612746565b801561107a5780601f1061104f5761010080835404028352916020019161107a565b820191906000526020600020905b81548152906001019060200180831161105d57829003601f168201915b5050505050815260200160028201805461093390612746565b60606000600360008481526020019081526020016000206040518060600160405290816000820180546110c590612746565b80601f01602080910402602001604051908101604052809291908181526020018280546110f190612746565b801561113e5780601f106111135761010080835404028352916020019161113e565b820191906000526020600020905b81548152906001019060200180831161112157829003601f168201915b5050505050815260200160018201805461115790612746565b80601f016020809104026020016040519081016040528092919081815260200182805461118390612746565b80156111d05780601f106111a5576101008083540402835291602001916111d0565b820191906000526020600020905b8154815290600101906020018083116111b357829003601f168201915b5050505050815260200160028201805461059990612746565b60036020526000908152604090208054819061120490612746565b80601f016020809104026020016040519081016040528092919081815260200182805461123090612746565b801561127d5780601f106112525761010080835404028352916020019161127d565b820191906000526020600020905b81548152906001019060200180831161126057829003601f168201915b50505050509080600101805461129290612746565b80601f01602080910402602001604051908101604052809291908181526020018280546112be90612746565b801561130b5780601f106112e05761010080835404028352916020019161130b565b820191906000526020600020905b8154815290600101906020018083116112ee57829003601f168201915b50505050509080600201805461132090612746565b80601f016020809104026020016040519081016040528092919081815260200182805461134c90612746565b80156113995780601f1061136e57610100808354040283529160200191611399565b820191906000526020600020905b81548152906001019060200180831161137c57829003601f168201915b5050505050905083565b60606000600160008481526020019081526020016000206040518060c00160405290816000820180546113d590612746565b80601f016020809104026020016040519081016040528092919081815260200182805461140190612746565b801561144e5780601f106114235761010080835404028352916020019161144e565b820191906000526020600020905b81548152906001019060200180831161143157829003601f168201915b5050505050815260200160018201805461146790612746565b80601f016020809104026020016040519081016040528092919081815260200182805461149390612746565b80156114e05780601f106114b5576101008083540402835291602001916114e0565b820191906000526020600020905b8154815290600101906020018083116114c357829003601f168201915b505050505081526020016002820180546114f990612746565b80601f016020809104026020016040519081016040528092919081815260200182805461152590612746565b80156115725780601f1061154757610100808354040283529160200191611572565b820191906000526020600020905b81548152906001019060200180831161155557829003601f168201915b5050505050815260200160038201805461158b90612746565b80601f01602080910402602001604051908101604052809291908181526020018280546115b790612746565b80156116045780601f106115d957610100808354040283529160200191611604565b820191906000526020600020905b8154815290600101906020018083116115e757829003601f168201915b5050505050815260200160048201805461161d90612746565b80601f016020809104026020016040519081016040528092919081815260200182805461164990612746565b80156116965780601f1061166b57610100808354040283529160200191611696565b820191906000526020600020905b81548152906001019060200180831161167957829003601f168201915b50505050508152602001600582018054610b1590612746565b6001602052600090815260409020805481906116ca90612746565b80601f01602080910402602001604051908101604052809291908181526020018280546116f690612746565b80156117435780601f1061171857610100808354040283529160200191611743565b820191906000526020600020905b81548152906001019060200180831161172657829003601f168201915b50505050509080600101805461175890612746565b80601f016020809104026020016040519081016040528092919081815260200182805461178490612746565b80156117d15780601f106117a6576101008083540402835291602001916117d1565b820191906000526020600020905b8154815290600101906020018083116117b457829003601f168201915b5050505050908060020180546117e690612746565b80601f016020809104026020016040519081016040528092919081815260200182805461181290612746565b801561185f5780601f106118345761010080835404028352916020019161185f565b820191906000526020600020905b81548152906001019060200180831161184257829003601f168201915b50505050509080600301805461187490612746565b80601f01602080910402602001604051908101604052809291908181526020018280546118a090612746565b80156118ed5780601f106118c2576101008083540402835291602001916118ed565b820191906000526020600020905b8154815290600101906020018083116118d057829003601f168201915b50505050509080600401805461190290612746565b80601f016020809104026020016040519081016040528092919081815260200182805461192e90612746565b801561197b5780601f106119505761010080835404028352916020019161197b565b820191906000526020600020905b81548152906001019060200180831161195e57829003601f168201915b50505050509080600501805461199090612746565b80601f01602080910402602001604051908101604052809291908181526020018280546119bc90612746565b8015611a095780601f106119de57610100808354040283529160200191611a09565b820191906000526020600020905b8154815290600101906020018083116119ec57829003601f168201915b5050505050905086565b60606000600160008481526020019081526020016000206040518060c0016040529081600082018054611a4590612746565b80601f0160208091040260200160405190810160405280929190818152602001828054611a7190612746565b8015611abe5780601f10611a9357610100808354040283529160200191611abe565b820191906000526020600020905b815481529060010190602001808311611aa157829003601f168201915b50505050508152602001600182018054611ad790612746565b80601f0160208091040260200160405190810160405280929190818152602001828054611b0390612746565b8015611b505780601f10611b2557610100808354040283529160200191611b50565b820191906000526020600020905b815481529060010190602001808311611b3357829003601f168201915b50505050508152602001600282018054611b6990612746565b80601f0160208091040260200160405190810160405280929190818152602001828054611b9590612746565b8015611be25780601f10611bb757610100808354040283529160200191611be2565b820191906000526020600020905b815481529060010190602001808311611bc557829003601f168201915b50505050508152602001600382018054611bfb90612746565b80601f0160208091040260200160405190810160405280929190818152602001828054611c2790612746565b8015611c745780601f10611c4957610100808354040283529160200191611c74565b820191906000526020600020905b815481529060010190602001808311611c5757829003601f168201915b50505050508152602001600482018054611c8d90612746565b80601f0160208091040260200160405190810160405280929190818152602001828054611cb990612746565b8015611d065780601f10611cdb57610100808354040283529160200191611d06565b820191906000526020600020905b815481529060010190602001808311611ce957829003601f168201915b50505050508152602001600582018054611d1f90612746565b80601f0160208091040260200160405190810160405280929190818152602001828054611d4b90612746565b8015611d985780601f10611d6d57610100808354040283529160200191611d98565b820191906000526020600020905b815481529060010190602001808311611d7b57829003601f168201915b50505091909252505050608001519392505050565b60606000600160008481526020019081526020016000206040518060c0016040529081600082018054611ddf90612746565b80601f0160208091040260200160405190810160405280929190818152602001828054611e0b90612746565b8015611e585780601f10611e2d57610100808354040283529160200191611e58565b820191906000526020600020905b815481529060010190602001808311611e3b57829003601f168201915b50505050508152602001600182018054611e7190612746565b80601f0160208091040260200160405190810160405280929190818152602001828054611e9d90612746565b8015611eea5780601f10611ebf57610100808354040283529160200191611eea565b820191906000526020600020905b815481529060010190602001808311611ecd57829003601f168201915b50505050508152602001600282018054611f0390612746565b80601f0160208091040260200160405190810160405280929190818152602001828054611f2f90612746565b8015611f7c5780601f10611f5157610100808354040283529160200191611f7c565b820191906000526020600020905b815481529060010190602001808311611f5f57829003601f168201915b50505050508152602001600382018054611f9590612746565b80601f0160208091040260200160405190810160405280929190818152602001828054611fc190612746565b801561200e5780601f10611fe35761010080835404028352916020019161200e565b820191906000526020600020905b815481529060010190602001808311611ff157829003601f168201915b5050505050815260200160048201805461202790612746565b80601f016020809104026020016040519081016040528092919081815260200182805461205390612746565b80156120a05780601f10612075576101008083540402835291602001916120a0565b820191906000526020600020905b81548152906001019060200180831161208357829003601f168201915b505050505081526020016005820180546120b990612746565b80601f01602080910402602001604051908101604052809291908181526020018280546120e590612746565b80156121325780601f1061210757610100808354040283529160200191612132565b820191906000526020600020905b81548152906001019060200180831161211557829003601f168201915b5050509190925250505060a001519392505050565b604080516060810182528481526020808201859052818301849052600254600090815260038252929092208151805192939192612187928492019061232f565b5060208281015180516121a0926001850192019061232f565b50604082015180516121bc91600284019160209091019061232f565b50506002546040519091507f796edf56966598f5bb4d8b9767c62e5aaec723a6c39bec93e52e2db3c9c0645490600090a2600280549060006121fd8361279a565b9190505550505050565b6040805160c0810182528781526020808201889052818301879052606082018690526080820185905260a082018490526000805481526001825292909220815180519293919261225a928492019061232f565b506020828101518051612273926001850192019061232f565b506040820151805161228f91600284019160209091019061232f565b50606082015180516122ab91600384019160209091019061232f565b50608082015180516122c791600484019160209091019061232f565b5060a082015180516122e391600584019160209091019061232f565b5050600080546040519092507ff4224cd6c7ed3445821a4ff1790b40b497827b0297e5a5d9c550a16f86e5ca4b9190a26000805490806123228361279a565b9190505550505050505050565b82805461233b90612746565b90600052602060002090601f01602090048101928261235d57600085556123a3565b82601f1061237657805160ff19168380011785556123a3565b828001600101855582156123a3579182015b828111156123a3578251825591602001919060010190612388565b506123af9291506123b3565b5090565b5b808211156123af57600081556001016123b4565b6000602082840312156123da57600080fd5b5035919050565b6000815180845260005b81811015612407576020818501810151868301820152016123eb565b81811115612419576000602083870101525b50601f01601f19169290920160200192915050565b60208152600061244160208301846123e1565b9392505050565b60608152600061245b60608301866123e1565b828103602084015261246d81866123e1565b9050828103604084015261248181856123e1565b9695505050505050565b60c08152600061249e60c08301896123e1565b82810360208401526124b081896123e1565b905082810360408401526124c481886123e1565b905082810360608401526124d881876123e1565b905082810360808401526124ec81866123e1565b905082810360a084015261250081856123e1565b9998505050505050505050565b7f4e487b7100000000000000000000000000000000000000000000000000000000600052604160045260246000fd5b600082601f83011261254d57600080fd5b813567ffffffffffffffff808211156125685761256861250d565b604051601f8301601f19908116603f011681019082821181831017156125905761259061250d565b816040528381528660208588010111156125a957600080fd5b836020870160208301376000602085830101528094505050505092915050565b6000806000606084860312156125de57600080fd5b833567ffffffffffffffff808211156125f657600080fd5b6126028783880161253c565b9450602086013591508082111561261857600080fd5b6126248783880161253c565b9350604086013591508082111561263a57600080fd5b506126478682870161253c565b9150509250925092565b60008060008060008060c0878903121561266a57600080fd5b863567ffffffffffffffff8082111561268257600080fd5b61268e8a838b0161253c565b975060208901359150808211156126a457600080fd5b6126b08a838b0161253c565b965060408901359150808211156126c657600080fd5b6126d28a838b0161253c565b955060608901359150808211156126e857600080fd5b6126f48a838b0161253c565b9450608089013591508082111561270a57600080fd5b6127168a838b0161253c565b935060a089013591508082111561272c57600080fd5b5061273989828a0161253c565b9150509295509295509295565b60028104600182168061275a57607f821691505b60208210811415612794577f4e487b7100000000000000000000000000000000000000000000000000000000600052602260045260246000fd5b50919050565b60006000198214156127d5577f4e487b7100000000000000000000000000000000000000000000000000000000600052601160045260246000fd5b506001019056fea264697066735822122039f98ed8c7c26c843ff57002ed86507f8c8b839d1c22e9ae1105e1e51081143a64736f6c634300080b0033",
  "immutableReferences": {},
  "source": "pragma solidity >= 0.8.11 <= 0.8.11;\r\npragma experimental ABIEncoderV2;\r\n//Attendance solidity code\r\ncontract Attendance {\r\n\r\n    uint public studentCount = 0; \r\n    mapping(uint => student) public studentList; \r\n     struct student\r\n     {\r\n       string studentid;\r\n       string name;\r\n       string course;\r\n       string phone;\r\n       string email;\r\n       string student_address;\r\n     }\r\n \r\n   // events \r\n   event studentCreated(uint indexed _userId);\r\n   \r\n   //function  to save student details to Blockchain\r\n   function saveStudent(string memory sid, string memory std_name, string memory std_course, string memory std_phone, string memory std_email, string memory std_address) public {\r\n      studentList[studentCount] = student(sid, std_name, std_course, std_phone, std_email, std_address);\r\n      emit studentCreated(studentCount);\r\n      studentCount++;\r\n    }\r\n\r\n     //get student count\r\n    function getStudentCount()  public view returns (uint) {\r\n          return  studentCount;\r\n    }\r\n\r\n    uint public attendanceCount = 0; \r\n    mapping(uint => attendance) public attendanceList; \r\n     struct attendance\r\n     {\r\n       string studentId;\r\n       string attendance_date;\r\n       string class_name;       \r\n     }\r\n \r\n   // events \r\n   event attendanceCreated(uint indexed _iotId);\r\n   \r\n   //function  to save attendance data to Blockchain\r\n   function saveAttendance(string memory sid, string memory sdate, string memory cname) public {\r\n      attendanceList[attendanceCount] = attendance(sid, sdate, cname);\r\n      emit attendanceCreated(attendanceCount);\r\n      attendanceCount++;\r\n    }\r\n\r\n    //get attendance count\r\n    function getAttendanceCount()  public view returns (uint) {\r\n          return attendanceCount;\r\n    }\r\n\r\n    function getStdID(uint i) public view returns (string memory) {\r\n        attendance memory doc = attendanceList[i];\r\n\treturn doc.studentId;\r\n    }\r\n\r\n    function getAttendanceDate(uint i) public view returns (string memory) {\r\n        attendance memory doc = attendanceList[i];\r\n\treturn doc.attendance_date;\r\n    }\r\n\r\n    function getClassName(uint i) public view returns (string memory) {\r\n        attendance memory doc = attendanceList[i];\r\n\treturn doc.class_name;\r\n    }    \r\n\r\n    function getEmail(uint i) public view returns (string memory) {\r\n        student memory doc = studentList[i];\r\n\treturn doc.email;\r\n    }\r\n\r\n    function getAddress(uint i) public view returns (string memory) {\r\n        student memory doc = studentList[i];\r\n\treturn doc.student_address;\r\n    }\r\n\r\n    function getID(uint i) public view returns (string memory) {\r\n        student memory doc = studentList[i];\r\n\treturn doc.studentid;\r\n    }\r\n\r\n    function getPhone(uint i) public view returns (string memory) {\r\n        student memory doc = studentList[i];\r\n\treturn doc.phone;\r\n    }\r\n\r\n    function getName(uint i) public view returns (string memory) {\r\n        student memory doc =studentList[i];\r\n\treturn doc.name;\r\n    }\r\n\r\n    function getCourse(uint i) public view returns (string memory) {\r\n        student memory doc =studentList[i];\r\n\treturn doc.course;\r\n    }\r\n        \r\n}",
  "sourcePath": "C:\\Users\\Admin\\Desktop\\Blockchain\\hello-eth\\node_modules\\.bin\\contracts\\Attendance.sol",
  "compiler": {
    "name": "solc",
    "version": "0.8.11+commit.d7f03943.Emscripten.clang"
  },
  "schemaVersion": "3.4.4",
  "updatedAt": "2025-03-13T13:29:59.977Z",
  "networkType": "ethereum",
  "devdoc": {
    "kind": "dev",
    "methods": {},
    "version": 1
  },
  "userdoc": {
    "kind": "user",
    "methods": {},
    "version": 1
  }
}